{
  "contractName": "GuaCoin",
  "abi": [
    {
      "constant": true,
      "inputs": [],
      "name": "president",
      "outputs": [
        {
          "name": "",
          "type": "address"
        }
      ],
      "payable": false,
      "stateMutability": "view",
      "type": "function"
    },
    {
      "constant": true,
      "inputs": [],
      "name": "totalCount",
      "outputs": [
        {
          "name": "",
          "type": "uint256"
        }
      ],
      "payable": false,
      "stateMutability": "view",
      "type": "function"
    },
    {
      "constant": true,
      "inputs": [
        {
          "name": "",
          "type": "address"
        },
        {
          "name": "",
          "type": "uint256"
        }
      ],
      "name": "repositories",
      "outputs": [
        {
          "name": "id",
          "type": "uint256"
        },
        {
          "name": "owner",
          "type": "address"
        },
        {
          "name": "repoIndex",
          "type": "uint256"
        },
        {
          "name": "delegator",
          "type": "address"
        }
      ],
      "payable": false,
      "stateMutability": "view",
      "type": "function"
    },
    {
      "constant": true,
      "inputs": [],
      "name": "usedCount",
      "outputs": [
        {
          "name": "",
          "type": "uint256"
        }
      ],
      "payable": false,
      "stateMutability": "view",
      "type": "function"
    },
    {
      "constant": true,
      "inputs": [
        {
          "name": "",
          "type": "uint256"
        }
      ],
      "name": "registrations",
      "outputs": [
        {
          "name": "id",
          "type": "uint256"
        },
        {
          "name": "owner",
          "type": "address"
        },
        {
          "name": "repoIndex",
          "type": "uint256"
        },
        {
          "name": "delegator",
          "type": "address"
        }
      ],
      "payable": false,
      "stateMutability": "view",
      "type": "function"
    },
    {
      "inputs": [],
      "payable": false,
      "stateMutability": "nonpayable",
      "type": "constructor"
    },
    {
      "anonymous": false,
      "inputs": [
        {
          "indexed": true,
          "name": "_from",
          "type": "address"
        },
        {
          "indexed": true,
          "name": "_to",
          "type": "address"
        },
        {
          "indexed": false,
          "name": "_tokenId",
          "type": "uint256"
        }
      ],
      "name": "Transfer",
      "type": "event"
    },
    {
      "anonymous": false,
      "inputs": [
        {
          "indexed": true,
          "name": "_owner",
          "type": "address"
        },
        {
          "indexed": true,
          "name": "_approved",
          "type": "address"
        },
        {
          "indexed": false,
          "name": "_tokenId",
          "type": "uint256"
        }
      ],
      "name": "Approval",
      "type": "event"
    },
    {
      "anonymous": false,
      "inputs": [
        {
          "indexed": true,
          "name": "_owner",
          "type": "address"
        },
        {
          "indexed": false,
          "name": "_tokenId",
          "type": "uint256"
        }
      ],
      "name": "Registered",
      "type": "event"
    },
    {
      "constant": true,
      "inputs": [],
      "name": "name",
      "outputs": [
        {
          "name": "",
          "type": "string"
        }
      ],
      "payable": false,
      "stateMutability": "pure",
      "type": "function"
    },
    {
      "constant": true,
      "inputs": [],
      "name": "symbol",
      "outputs": [
        {
          "name": "",
          "type": "string"
        }
      ],
      "payable": false,
      "stateMutability": "pure",
      "type": "function"
    },
    {
      "constant": true,
      "inputs": [],
      "name": "totalSupply",
      "outputs": [
        {
          "name": "",
          "type": "uint256"
        }
      ],
      "payable": false,
      "stateMutability": "view",
      "type": "function"
    },
    {
      "constant": true,
      "inputs": [
        {
          "name": "_owner",
          "type": "address"
        }
      ],
      "name": "balanceOf",
      "outputs": [
        {
          "name": "",
          "type": "uint256"
        }
      ],
      "payable": false,
      "stateMutability": "view",
      "type": "function"
    },
    {
      "constant": true,
      "inputs": [
        {
          "name": "_tokenId",
          "type": "uint256"
        }
      ],
      "name": "ownerOf",
      "outputs": [
        {
          "name": "",
          "type": "address"
        }
      ],
      "payable": false,
      "stateMutability": "view",
      "type": "function"
    },
    {
      "constant": false,
      "inputs": [
        {
          "name": "_to",
          "type": "address"
        },
        {
          "name": "_tokenId",
          "type": "uint256"
        }
      ],
      "name": "approve",
      "outputs": [],
      "payable": true,
      "stateMutability": "payable",
      "type": "function"
    },
    {
      "constant": false,
      "inputs": [
        {
          "name": "_tokenId",
          "type": "uint256"
        }
      ],
      "name": "takeOwnership",
      "outputs": [],
      "payable": false,
      "stateMutability": "nonpayable",
      "type": "function"
    },
    {
      "constant": false,
      "inputs": [
        {
          "name": "_to",
          "type": "address"
        },
        {
          "name": "_tokenId",
          "type": "uint256"
        }
      ],
      "name": "transfer",
      "outputs": [],
      "payable": false,
      "stateMutability": "nonpayable",
      "type": "function"
    },
    {
      "constant": true,
      "inputs": [
        {
          "name": "_owner",
          "type": "address"
        },
        {
          "name": "_index",
          "type": "uint256"
        }
      ],
      "name": "tokenOfOwnerByIndex",
      "outputs": [
        {
          "name": "",
          "type": "uint256"
        }
      ],
      "payable": false,
      "stateMutability": "view",
      "type": "function"
    },
    {
      "constant": false,
      "inputs": [
        {
          "name": "num",
          "type": "uint256"
        }
      ],
      "name": "restock",
      "outputs": [],
      "payable": false,
      "stateMutability": "nonpayable",
      "type": "function"
    },
    {
      "constant": false,
      "inputs": [
        {
          "name": "_tokenId",
          "type": "uint256"
        }
      ],
      "name": "register",
      "outputs": [],
      "payable": true,
      "stateMutability": "payable",
      "type": "function"
    },
    {
      "constant": true,
      "inputs": [
        {
          "name": "owner",
          "type": "address"
        },
        {
          "name": "page",
          "type": "uint256"
        },
        {
          "name": "perPage",
          "type": "uint256"
        }
      ],
      "name": "getPaginatedRegistrationIDs",
      "outputs": [
        {
          "name": "",
          "type": "uint256[]"
        }
      ],
      "payable": false,
      "stateMutability": "view",
      "type": "function"
    },
    {
      "constant": true,
      "inputs": [
        {
          "name": "owner",
          "type": "address"
        }
      ],
      "name": "getRepositoryLength",
      "outputs": [
        {
          "name": "",
          "type": "uint256"
        }
      ],
      "payable": false,
      "stateMutability": "view",
      "type": "function"
    },
    {
      "constant": true,
      "inputs": [
        {
          "name": "owner",
          "type": "address"
        },
        {
          "name": "index",
          "type": "uint256"
        }
      ],
      "name": "getRepoRegistration",
      "outputs": [
        {
          "name": "",
          "type": "uint256"
        },
        {
          "name": "",
          "type": "address"
        },
        {
          "name": "",
          "type": "uint256"
        }
      ],
      "payable": false,
      "stateMutability": "view",
      "type": "function"
    }
  ],
  "bytecode": "0x608060405234801561001057600080fd5b50600a600281905550600060038190555033600460006101000a81548173ffffffffffffffffffffffffffffffffffffffff021916908373ffffffffffffffffffffffffffffffffffffffff16021790555061210d806100716000396000f3fe6080604052600436106101145760003560e01c80636352211e116100a0578063b2e6ceeb11610064578063b2e6ceeb146106f3578063c21a702a1461072e578063e97fd9cf14610769578063f207564e14610823578063f4ddb5be1461085157610114565b80636352211e146104fd57806370a082311461057857806395d89b41146105dd578063a9059cbb1461066d578063a9464248146106c857610114565b80633176ded4116100e75780633176ded414610291578063324a13761461033a57806334eafb11146103915780635278562a146103bc57806360cdfa6b1461049857610114565b806306fdde0314610119578063095ea7b3146101a957806318160ddd146101f75780632f745c5914610222575b600080fd5b34801561012557600080fd5b5061012e61090d565b6040518080602001828103825283818151815260200191508051906020019080838360005b8381101561016e578082015181840152602081019050610153565b50505050905090810190601f16801561019b5780820380516001836020036101000a031916815260200191505b509250505060405180910390f35b6101f5600480360360408110156101bf57600080fd5b81019080803573ffffffffffffffffffffffffffffffffffffffff1690602001909291908035906020019092919050505061094a565b005b34801561020357600080fd5b5061020c610b19565b6040518082815260200191505060405180910390f35b34801561022e57600080fd5b5061027b6004803603604081101561024557600080fd5b81019080803573ffffffffffffffffffffffffffffffffffffffff16906020019092919080359060200190929190505050610b23565b6040518082815260200191505060405180910390f35b34801561029d57600080fd5b506102ea600480360360408110156102b457600080fd5b81019080803573ffffffffffffffffffffffffffffffffffffffff16906020019092919080359060200190929190505050610b88565b604051808481526020018373ffffffffffffffffffffffffffffffffffffffff1673ffffffffffffffffffffffffffffffffffffffff168152602001828152602001935050505060405180910390f35b34801561034657600080fd5b5061034f610ccb565b604051808273ffffffffffffffffffffffffffffffffffffffff1673ffffffffffffffffffffffffffffffffffffffff16815260200191505060405180910390f35b34801561039d57600080fd5b506103a6610cf1565b6040518082815260200191505060405180910390f35b3480156103c857600080fd5b50610415600480360360408110156103df57600080fd5b81019080803573ffffffffffffffffffffffffffffffffffffffff16906020019092919080359060200190929190505050610cf7565b604051808581526020018473ffffffffffffffffffffffffffffffffffffffff1673ffffffffffffffffffffffffffffffffffffffff1681526020018381526020018273ffffffffffffffffffffffffffffffffffffffff1673ffffffffffffffffffffffffffffffffffffffff16815260200194505050505060405180910390f35b3480156104a457600080fd5b506104e7600480360360208110156104bb57600080fd5b81019080803573ffffffffffffffffffffffffffffffffffffffff169060200190929190505050610d81565b6040518082815260200191505060405180910390f35b34801561050957600080fd5b506105366004803603602081101561052057600080fd5b8101908080359060200190929190505050610dcc565b604051808273ffffffffffffffffffffffffffffffffffffffff1673ffffffffffffffffffffffffffffffffffffffff16815260200191505060405180910390f35b34801561058457600080fd5b506105c76004803603602081101561059b57600080fd5b81019080803573ffffffffffffffffffffffffffffffffffffffff169060200190929190505050610e0c565b6040518082815260200191505060405180910390f35b3480156105e957600080fd5b506105f2610e57565b6040518080602001828103825283818151815260200191508051906020019080838360005b83811015610632578082015181840152602081019050610617565b50505050905090810190601f16801561065f5780820380516001836020036101000a031916815260200191505b509250505060405180910390f35b34801561067957600080fd5b506106c66004803603604081101561069057600080fd5b81019080803573ffffffffffffffffffffffffffffffffffffffff16906020019092919080359060200190929190505050610e94565b005b3480156106d457600080fd5b506106dd610ead565b6040518082815260200191505060405180910390f35b3480156106ff57600080fd5b5061072c6004803603602081101561071657600080fd5b8101908080359060200190929190505050610eb3565b005b34801561073a57600080fd5b506107676004803603602081101561075157600080fd5b8101908080359060200190929190505050610fd3565b005b34801561077557600080fd5b506107cc6004803603606081101561078c57600080fd5b81019080803573ffffffffffffffffffffffffffffffffffffffff169060200190929190803590602001909291908035906020019092919050505061108c565b6040518080602001828103825283818151815260200191508051906020019060200280838360005b8381101561080f5780820151818401526020810190506107f4565b505050509050019250505060405180910390f35b61084f6004803603602081101561083957600080fd5b8101908080359060200190929190505050611341565b005b34801561085d57600080fd5b5061088a6004803603602081101561087457600080fd5b8101908080359060200190929190505050611730565b604051808581526020018473ffffffffffffffffffffffffffffffffffffffff1673ffffffffffffffffffffffffffffffffffffffff1681526020018381526020018273ffffffffffffffffffffffffffffffffffffffff1673ffffffffffffffffffffffffffffffffffffffff16815260200194505050505060405180910390f35b60606040518060400160405280600781526020017f477561436f696e00000000000000000000000000000000000000000000000000815250905090565b3373ffffffffffffffffffffffffffffffffffffffff1661096a82610dcc565b73ffffffffffffffffffffffffffffffffffffffff16146109d6576040517f08c379a00000000000000000000000000000000000000000000000000000000081526004018080602001828103825260348152602001806120ae6034913960400191505060405180910390fd5b3373ffffffffffffffffffffffffffffffffffffffff168273ffffffffffffffffffffffffffffffffffffffff161415610a5b576040517f08c379a000000000000000000000000000000000000000000000000000000000815260040180806020018281038252602c815260200180612082602c913960400191505060405180910390fd5b816001600083815260200190815260200160002060030160006101000a81548173ffffffffffffffffffffffffffffffffffffffff021916908373ffffffffffffffffffffffffffffffffffffffff1602179055508173ffffffffffffffffffffffffffffffffffffffff163373ffffffffffffffffffffffffffffffffffffffff167f8c5be1e5ebec7d5bd14f71427d1e84f3dd0314c0f7b2291e5b200ac8c7c3b925836040518082815260200191505060405180910390a35050565b6000600254905090565b60008060008473ffffffffffffffffffffffffffffffffffffffff1673ffffffffffffffffffffffffffffffffffffffff1681526020019081526020016000208281548110610b6e57fe5b906000526020600020906004020160000154905092915050565b60008060008060008673ffffffffffffffffffffffffffffffffffffffff1673ffffffffffffffffffffffffffffffffffffffff1681526020019081526020016000208481548110610bd657fe5b9060005260206000209060040201600001546000808773ffffffffffffffffffffffffffffffffffffffff1673ffffffffffffffffffffffffffffffffffffffff1681526020019081526020016000208581548110610c3157fe5b906000526020600020906004020160010160009054906101000a900473ffffffffffffffffffffffffffffffffffffffff166000808873ffffffffffffffffffffffffffffffffffffffff1673ffffffffffffffffffffffffffffffffffffffff1681526020019081526020016000208681548110610cac57fe5b9060005260206000209060040201600201549250925092509250925092565b600460009054906101000a900473ffffffffffffffffffffffffffffffffffffffff1681565b60025481565b60006020528160005260406000208181548110610d1057fe5b9060005260206000209060040201600091509150508060000154908060010160009054906101000a900473ffffffffffffffffffffffffffffffffffffffff16908060020154908060030160009054906101000a900473ffffffffffffffffffffffffffffffffffffffff16905084565b60008060008373ffffffffffffffffffffffffffffffffffffffff1673ffffffffffffffffffffffffffffffffffffffff168152602001908152602001600020805490509050919050565b60006001600083815260200190815260200160002060010160009054906101000a900473ffffffffffffffffffffffffffffffffffffffff169050919050565b60008060008373ffffffffffffffffffffffffffffffffffffffff1673ffffffffffffffffffffffffffffffffffffffff168152602001908152602001600020805490509050919050565b60606040518060400160405280600281526020017f4743000000000000000000000000000000000000000000000000000000000000815250905090565b610e9d816117a0565b50610ea933838361187b565b5050565b60035481565b610ebc816117a0565b5060006001600083815260200190815260200160002090503373ffffffffffffffffffffffffffffffffffffffff168160030160009054906101000a900473ffffffffffffffffffffffffffffffffffffffff1673ffffffffffffffffffffffffffffffffffffffff1614610f7c576040517f08c379a0000000000000000000000000000000000000000000000000000000008152600401808060200182810382526044815260200180611f846044913960600191505060405180910390fd5b610fcf8160010160009054906101000a900473ffffffffffffffffffffffffffffffffffffffff168260030160009054906101000a900473ffffffffffffffffffffffffffffffffffffffff168461187b565b5050565b600460009054906101000a900473ffffffffffffffffffffffffffffffffffffffff1673ffffffffffffffffffffffffffffffffffffffff163373ffffffffffffffffffffffffffffffffffffffff1614611079576040517f08c379a00000000000000000000000000000000000000000000000000000000081526004018080602001828103825260398152602001806120496039913960400191505060405180910390fd5b8060026000828254019250508190555050565b606060648211156110e8576040517f08c379a00000000000000000000000000000000000000000000000000000000081526004018080602001828103825260278152602001806120226027913960400191505060405180910390fd5b60008260018503029050606060008060008873ffffffffffffffffffffffffffffffffffffffff1673ffffffffffffffffffffffffffffffffffffffff168152602001908152602001600020805490501480611187575060016000808873ffffffffffffffffffffffffffffffffffffffff1673ffffffffffffffffffffffffffffffffffffffff168152602001908152602001600020805490500382115b156111c95760006040519080825280602002602001820160405280156111bc5781602001602082028038833980820191505090505b509050809250505061133a565b60008290508483016000808973ffffffffffffffffffffffffffffffffffffffff1673ffffffffffffffffffffffffffffffffffffffff16815260200190815260200160002080549050111561122357848101905061126c565b826000808973ffffffffffffffffffffffffffffffffffffffff1673ffffffffffffffffffffffffffffffffffffffff1681526020019081526020016000208054905003810190505b82810360405190808252806020026020018201604052801561129d5781602001602082028038833980820191505090505b50915060008090505b818185011015611332576000808973ffffffffffffffffffffffffffffffffffffffff1673ffffffffffffffffffffffffffffffffffffffff168152602001908152602001600020818501815481106112fb57fe5b90600052602060002090600402016000015483828151811061131957fe5b60200260200101818152505080806001019150506112a6565b508193505050505b9392505050565b61134a816117a0565b50600073ffffffffffffffffffffffffffffffffffffffff166001600083815260200190815260200160002060010160009054906101000a900473ffffffffffffffffffffffffffffffffffffffff1673ffffffffffffffffffffffffffffffffffffffff1614611406576040517f08c379a0000000000000000000000000000000000000000000000000000000008152600401808060200182810382526038815260200180611fc86038913960400191505060405180910390fd5b60036000815480929190600101919050555060405180608001604052808281526020013373ffffffffffffffffffffffffffffffffffffffff1681526020016000803373ffffffffffffffffffffffffffffffffffffffff1673ffffffffffffffffffffffffffffffffffffffff168152602001908152602001600020805490508152602001600073ffffffffffffffffffffffffffffffffffffffff16815250600160008381526020019081526020016000206000820151816000015560208201518160010160006101000a81548173ffffffffffffffffffffffffffffffffffffffff021916908373ffffffffffffffffffffffffffffffffffffffff1602179055506040820151816002015560608201518160030160006101000a81548173ffffffffffffffffffffffffffffffffffffffff021916908373ffffffffffffffffffffffffffffffffffffffff1602179055509050506000803373ffffffffffffffffffffffffffffffffffffffff1673ffffffffffffffffffffffffffffffffffffffff1681526020019081526020016000206001600083815260200190815260200160002090806001815401808255809150509060018203906000526020600020906004020160009091929091909150600082015481600001556001820160009054906101000a900473ffffffffffffffffffffffffffffffffffffffff168160010160006101000a81548173ffffffffffffffffffffffffffffffffffffffff021916908373ffffffffffffffffffffffffffffffffffffffff160217905550600282015481600201556003820160009054906101000a900473ffffffffffffffffffffffffffffffffffffffff168160030160006101000a81548173ffffffffffffffffffffffffffffffffffffffff021916908373ffffffffffffffffffffffffffffffffffffffff1602179055505050503373ffffffffffffffffffffffffffffffffffffffff167f6f3bf3fa84e4763a43b3d23f9d79be242d6d5c834941ff4c1111b67469e1150c826040518082815260200191505060405180910390a28060016000838152602001908152602001600020600001541461172d57fe5b50565b60016020528060005260406000206000915090508060000154908060010160009054906101000a900473ffffffffffffffffffffffffffffffffffffffff16908060020154908060030160009054906101000a900473ffffffffffffffffffffffffffffffffffffffff16905084565b6000808211611817576040517f08c379a00000000000000000000000000000000000000000000000000000000081526004018080602001828103825260198152602001807f6964206d7573742062652067726561746572207468616e20300000000000000081525060200191505060405180910390fd5b600254821115611872576040517f08c379a00000000000000000000000000000000000000000000000000000000081526004018080602001828103825260228152602001806120006022913960400191505060405180910390fd5b60019050919050565b600060016000838152602001908152602001600020905060008160030160006101000a81548173ffffffffffffffffffffffffffffffffffffffff021916908373ffffffffffffffffffffffffffffffffffffffff16021790555060016000808360010160009054906101000a900473ffffffffffffffffffffffffffffffffffffffff1673ffffffffffffffffffffffffffffffffffffffff1673ffffffffffffffffffffffffffffffffffffffff168152602001908152602001600020805490501115611c17576000808260010160009054906101000a900473ffffffffffffffffffffffffffffffffffffffff1673ffffffffffffffffffffffffffffffffffffffff1673ffffffffffffffffffffffffffffffffffffffff16815260200190815260200160002060016000808460010160009054906101000a900473ffffffffffffffffffffffffffffffffffffffff1673ffffffffffffffffffffffffffffffffffffffff1673ffffffffffffffffffffffffffffffffffffffff168152602001908152602001600020805490500381548110611a1957fe5b90600052602060002090600402016000808360010160009054906101000a900473ffffffffffffffffffffffffffffffffffffffff1673ffffffffffffffffffffffffffffffffffffffff1673ffffffffffffffffffffffffffffffffffffffff168152602001908152602001600020826002015481548110611a9857fe5b9060005260206000209060040201600082015481600001556001820160009054906101000a900473ffffffffffffffffffffffffffffffffffffffff168160010160006101000a81548173ffffffffffffffffffffffffffffffffffffffff021916908373ffffffffffffffffffffffffffffffffffffffff160217905550600282015481600201556003820160009054906101000a900473ffffffffffffffffffffffffffffffffffffffff168160030160006101000a81548173ffffffffffffffffffffffffffffffffffffffff021916908373ffffffffffffffffffffffffffffffffffffffff16021790555090505080600201546000808360010160009054906101000a900473ffffffffffffffffffffffffffffffffffffffff1673ffffffffffffffffffffffffffffffffffffffff1673ffffffffffffffffffffffffffffffffffffffff168152602001908152602001600020826002015481548110611c0157fe5b9060005260206000209060040201600201819055505b6000808260010160009054906101000a900473ffffffffffffffffffffffffffffffffffffffff1673ffffffffffffffffffffffffffffffffffffffff1673ffffffffffffffffffffffffffffffffffffffff168152602001908152602001600020805480919060019003611c8c9190611ed4565b50828160010160006101000a81548173ffffffffffffffffffffffffffffffffffffffff021916908373ffffffffffffffffffffffffffffffffffffffff1602179055506000808473ffffffffffffffffffffffffffffffffffffffff1673ffffffffffffffffffffffffffffffffffffffff1681526020019081526020016000208054905081600201819055506000808473ffffffffffffffffffffffffffffffffffffffff1673ffffffffffffffffffffffffffffffffffffffff1681526020019081526020016000208190806001815401808255809150509060018203906000526020600020906004020160009091929091909150600082015481600001556001820160009054906101000a900473ffffffffffffffffffffffffffffffffffffffff168160010160006101000a81548173ffffffffffffffffffffffffffffffffffffffff021916908373ffffffffffffffffffffffffffffffffffffffff160217905550600282015481600201556003820160009054906101000a900473ffffffffffffffffffffffffffffffffffffffff168160030160006101000a81548173ffffffffffffffffffffffffffffffffffffffff021916908373ffffffffffffffffffffffffffffffffffffffff1602179055505050508273ffffffffffffffffffffffffffffffffffffffff168473ffffffffffffffffffffffffffffffffffffffff167fddf252ad1be2c89b69c2b068fc378daa952ba7f163c4a11628f55a4df523b3ef846040518082815260200191505060405180910390a350505050565b815481835581811115611f0157600402816004028360005260206000209182019101611f009190611f06565b5b505050565b611f8091905b80821115611f7c576000808201600090556001820160006101000a81549073ffffffffffffffffffffffffffffffffffffffff021916905560028201600090556003820160006101000a81549073ffffffffffffffffffffffffffffffffffffffff021916905550600401611f0c565b5090565b9056fe796f752063616e27742074616b65206f776e657273686970206f6620616e20726567697374726174696f6e20776974686f7574206f776e6572277320617070726f76616c63616e6e6f7420726567697374657220616e20726567697374726174696f6e207468617420686173206265656e2072656769737465726564657863656564206d6178206e756d626572206f6620726567697374726174696f6e736d6178206e756d626572206f662070657250616765206973206c696d6974656420746f203130306f6e6c792074686520707265736964656e7420686173207065726d697373696f6e20746f20696e63726561736520746f74616c20636f756e74796f752063616e277420617070726f766520616e20726567697374726174696f6e20746f20796f7573656c66796f752063616e277420617070726f766520616e20726567697374726174696f6e207468617420796f7520646f6e2774206f776ea165627a7a723058202596f676c794b202555882ed6dabb7f7d13f3b32be07f519cfd1074b4026e9df0029",
  "source": "pragma solidity ^0.5.0;\n\ncontract GuaCoin {\n    struct Registration {\n        uint256 id;\n        address owner;\n        uint repoIndex;\n        address delegator;\n    }\n\n    mapping(address => Registration[]) public repositories;\n    mapping(uint256 => Registration) public registrations;\n\n    uint256 public totalCount;\n    uint256 public usedCount;\n    address public president;\n\n    event Transfer(address indexed _from, address indexed _to, uint256 _tokenId);\n    event Approval(address indexed _owner, address indexed _approved, uint256 _tokenId);\n    event Registered(address indexed _owner, uint256 _tokenId);\n\n    // Constructor\n    constructor() public {\n        totalCount = 10;\n        usedCount = 0;\n        president = msg.sender;\n    }\n\n    function name() public pure returns (string memory) {\n        return \"GuaCoin\";\n    }\n\n    function symbol() public pure returns (string memory) {\n        return \"GC\";\n    }\n\n    function totalSupply() public view returns (uint256) {\n        return totalCount;\n    }\n\n    function balanceOf(address _owner) public view returns (uint256) {\n        return repositories[_owner].length;\n    }\n\n    function ownerOf(uint256 _tokenId) public view returns (address) {\n        return registrations[_tokenId].owner;\n    }\n\n    function approve(address _to, uint256 _tokenId) public payable {\n        require(ownerOf(_tokenId) == msg.sender, \"you can't approve an registration that you don't own\");\n        require(_to != msg.sender, \"you can't approve an registration to youself\");\n\n        registrations[_tokenId].delegator = _to;\n        emit Approval(msg.sender, _to, _tokenId);\n    }\n\n    function checkRegistrationExists(uint256 _tokenId) internal view returns (bool) {\n        require(_tokenId > 0, \"id must be greater than 0\");\n        require(_tokenId <= totalCount, \"exceed max number of registrations\");\n\n        return true;\n    }\n\n    function transferRegistration(address _owner, address _to, uint256 _tokenId) internal {\n        Registration storage registration = registrations[_tokenId];\n\n        registration.delegator = address(0);\n        if (repositories[registration.owner].length > 1) {\n            repositories[registration.owner][registration.repoIndex] = repositories[registration.owner][repositories[registration.owner].length-1];\n            repositories[registration.owner][registration.repoIndex].repoIndex = registration.repoIndex;\n        }\n        repositories[registration.owner].length--;\n        registration.owner = _to;\n        registration.repoIndex = repositories[_to].length;\n        repositories[_to].push(registration);\n\n        emit Transfer(_owner, _to, _tokenId);\n    }\n\n    function takeOwnership(uint256 _tokenId) public {\n        checkRegistrationExists(_tokenId);\n\n        Registration storage reg = registrations[_tokenId];\n        require(reg.delegator == msg.sender, \"you can't take ownership of an registration without owner's approval\");\n\n        transferRegistration(reg.owner, reg.delegator, _tokenId);\n    }\n\n    function transfer(address _to, uint256 _tokenId) public {\n        checkRegistrationExists(_tokenId);\n\n        transferRegistration(msg.sender, _to, _tokenId);\n    }\n\n    function tokenOfOwnerByIndex(address _owner, uint256 _index) public view returns (uint256) {\n        return repositories[_owner][_index].id;\n    }\n\n    function restock(uint num) public {\n        require(msg.sender == president, \"only the president has permission to increase total count\");\n        totalCount += num;\n    }\n\n    function register(uint256 _tokenId) public payable {\n        checkRegistrationExists(_tokenId);\n        require(registrations[_tokenId].owner == address(0), \"cannot register an registration that has been registered\");\n\n        usedCount++;\n        registrations[_tokenId] = Registration(_tokenId, msg.sender, repositories[msg.sender].length, address(0));\n        repositories[msg.sender].push(registrations[_tokenId]);\n\n        emit Registered(msg.sender, _tokenId);\n\n        assert(registrations[_tokenId].id == _tokenId);\n    }\n\n    function getPaginatedRegistrationIDs(\n        address owner,\n        uint page,\n        uint perPage\n    ) public view returns (uint256[] memory) {\n        require(perPage <= 100, \"max number of perPage is limited to 100\");\n\n        uint startIndex = (page - 1) * perPage;\n        uint256[] memory regs;\n\n        if (\n            repositories[owner].length == 0 ||\n            startIndex > repositories[owner].length - 1\n        ) {\n            regs = new uint256[](0);\n            return regs;\n        }\n\n        uint maxIndex = startIndex;\n        if (repositories[owner].length > startIndex+perPage) {\n            maxIndex += perPage;\n        } else {\n            maxIndex += repositories[owner].length - startIndex;\n        }\n        regs = new uint[](maxIndex - startIndex);\n        for (uint i = 0; startIndex + i < maxIndex; i++) {\n            regs[i] = repositories[owner][startIndex + i].id;\n        }\n\n        // require(regs[0] == 6, \"regs[0] should be 6\");\n        // assert(regs[0] == 6);\n        return regs;\n    }\n\n    function getRepositoryLength(address owner) public view returns (uint) {\n        return repositories[owner].length;\n    }\n\n    function getRepoRegistration(address owner, uint index) public view returns (uint, address, uint) {\n        return (repositories[owner][index].id, repositories[owner][index].owner, repositories[owner][index].repoIndex);\n    }\n}\n",
  "sourcePath": "/Users/haofuxin/practices/ethereum/project1/truffle/GuaCoin/contracts/GuaCoin.sol",
  "compiler": {
    "name": "solc",
    "version": "0.5.8+commit.23d335f2.Emscripten.clang"
  },
  "schemaVersion": "3.0.11",
  "updatedAt": "2019-08-28T03:46:12.572Z",
  "devdoc": {
    "methods": {}
  },
  "userdoc": {
    "methods": {}
  }
}