{
  "contractName": "GuaCoin",
  "abi": [
    {
      "constant": true,
      "inputs": [
        {
          "name": "",
          "type": "uint256"
        }
      ],
      "name": "registrationMappings",
      "outputs": [
        {
          "name": "id",
          "type": "uint256"
        },
        {
          "name": "owner",
          "type": "address"
        }
      ],
      "payable": false,
      "stateMutability": "view",
      "type": "function"
    },
    {
      "constant": true,
      "inputs": [
        {
          "name": "",
          "type": "address"
        },
        {
          "name": "",
          "type": "uint256"
        }
      ],
      "name": "registrations",
      "outputs": [
        {
          "name": "id",
          "type": "uint256"
        },
        {
          "name": "owner",
          "type": "address"
        }
      ],
      "payable": false,
      "stateMutability": "view",
      "type": "function"
    },
    {
      "constant": true,
      "inputs": [],
      "name": "president",
      "outputs": [
        {
          "name": "",
          "type": "address"
        }
      ],
      "payable": false,
      "stateMutability": "view",
      "type": "function"
    },
    {
      "constant": true,
      "inputs": [],
      "name": "totalCount",
      "outputs": [
        {
          "name": "",
          "type": "uint256"
        }
      ],
      "payable": false,
      "stateMutability": "view",
      "type": "function"
    },
    {
      "constant": true,
      "inputs": [],
      "name": "usedCount",
      "outputs": [
        {
          "name": "",
          "type": "uint256"
        }
      ],
      "payable": false,
      "stateMutability": "view",
      "type": "function"
    },
    {
      "inputs": [],
      "payable": false,
      "stateMutability": "nonpayable",
      "type": "constructor"
    },
    {
      "constant": false,
      "inputs": [
        {
          "name": "num",
          "type": "uint256"
        }
      ],
      "name": "add",
      "outputs": [],
      "payable": false,
      "stateMutability": "nonpayable",
      "type": "function"
    },
    {
      "constant": false,
      "inputs": [
        {
          "name": "numOfRegistration",
          "type": "uint256"
        },
        {
          "name": "to",
          "type": "address"
        }
      ],
      "name": "transfer",
      "outputs": [],
      "payable": false,
      "stateMutability": "nonpayable",
      "type": "function"
    },
    {
      "constant": false,
      "inputs": [
        {
          "name": "numOfRegistration",
          "type": "uint256"
        }
      ],
      "name": "register",
      "outputs": [],
      "payable": true,
      "stateMutability": "payable",
      "type": "function"
    },
    {
      "constant": true,
      "inputs": [
        {
          "name": "numOfRegistration",
          "type": "uint256"
        }
      ],
      "name": "own",
      "outputs": [
        {
          "name": "",
          "type": "bool"
        }
      ],
      "payable": false,
      "stateMutability": "view",
      "type": "function"
    },
    {
      "constant": true,
      "inputs": [
        {
          "name": "numOfRegistration",
          "type": "uint256"
        }
      ],
      "name": "inspectOwner",
      "outputs": [
        {
          "name": "",
          "type": "address"
        }
      ],
      "payable": false,
      "stateMutability": "view",
      "type": "function"
    }
  ],
  "bytecode": "0x608060405234801561001057600080fd5b50600a600281905550600060038190555033600460006101000a81548173ffffffffffffffffffffffffffffffffffffffff021916908373ffffffffffffffffffffffffffffffffffffffff160217905550610c81806100716000396000f3fe6080604052600436106100915760003560e01c80637c0800a3116100595780637c0800a314610277578063a912c436146102f2578063a946424814610345578063b7760c8f14610370578063f207564e146103cb57610091565b806302d7b6501461009657806309052679146101185780631003e2d2146101ba578063324a1376146101f557806334eafb111461024c575b600080fd5b3480156100a257600080fd5b506100cf600480360360208110156100b957600080fd5b81019080803590602001909291905050506103f9565b604051808381526020018273ffffffffffffffffffffffffffffffffffffffff1673ffffffffffffffffffffffffffffffffffffffff1681526020019250505060405180910390f35b34801561012457600080fd5b506101716004803603604081101561013b57600080fd5b81019080803573ffffffffffffffffffffffffffffffffffffffff1690602001909291908035906020019092919050505061043d565b604051808381526020018273ffffffffffffffffffffffffffffffffffffffff1673ffffffffffffffffffffffffffffffffffffffff1681526020019250505060405180910390f35b3480156101c657600080fd5b506101f3600480360360208110156101dd57600080fd5b810190808035906020019092919050505061049b565b005b34801561020157600080fd5b5061020a610554565b604051808273ffffffffffffffffffffffffffffffffffffffff1673ffffffffffffffffffffffffffffffffffffffff16815260200191505060405180910390f35b34801561025857600080fd5b5061026161057a565b6040518082815260200191505060405180910390f35b34801561028357600080fd5b506102b06004803603602081101561029a57600080fd5b8101908080359060200190929190505050610580565b604051808273ffffffffffffffffffffffffffffffffffffffff1673ffffffffffffffffffffffffffffffffffffffff16815260200191505060405180910390f35b3480156102fe57600080fd5b5061032b6004803603602081101561031557600080fd5b81019080803590602001909291905050506105c0565b604051808215151515815260200191505060405180910390f35b34801561035157600080fd5b5061035a610695565b6040518082815260200191505060405180910390f35b34801561037c57600080fd5b506103c96004803603604081101561039357600080fd5b8101908080359060200190929190803573ffffffffffffffffffffffffffffffffffffffff16906020019092919050505061069b565b005b6103f7600480360360208110156103e157600080fd5b81019080803590602001909291905050506108f1565b005b60016020528060005260406000206000915090508060000154908060010160009054906101000a900473ffffffffffffffffffffffffffffffffffffffff16905082565b6000602052816000526040600020818154811061045657fe5b9060005260206000209060020201600091509150508060000154908060010160009054906101000a900473ffffffffffffffffffffffffffffffffffffffff16905082565b600460009054906101000a900473ffffffffffffffffffffffffffffffffffffffff1673ffffffffffffffffffffffffffffffffffffffff163373ffffffffffffffffffffffffffffffffffffffff1614610541576040517f08c379a0000000000000000000000000000000000000000000000000000000008152600401808060200182810382526039815260200180610be76039913960400191505060405180910390fd5b8060026000828254019250508190555050565b600460009054906101000a900473ffffffffffffffffffffffffffffffffffffffff1681565b60025481565b60006001600083815260200190815260200160002060010160009054906101000a900473ffffffffffffffffffffffffffffffffffffffff169050919050565b600080600090505b6000803373ffffffffffffffffffffffffffffffffffffffff1673ffffffffffffffffffffffffffffffffffffffff1681526020019081526020016000208054905081101561068a57826000803373ffffffffffffffffffffffffffffffffffffffff1673ffffffffffffffffffffffffffffffffffffffff168152602001908152602001600020828154811061065b57fe5b906000526020600020906002020160000154141561067d576001915050610690565b80806001019150506105c8565b50600090505b919050565b60035481565b6106a4826105c0565b6106f9576040517f08c379a0000000000000000000000000000000000000000000000000000000008152600401808060200182810382526036815260200180610c206036913960400191505060405180910390fd5b60008060003373ffffffffffffffffffffffffffffffffffffffff1673ffffffffffffffffffffffffffffffffffffffff168152602001908152602001600020838154811061074457fe5b90600052602060002090600202019050818160010160006101000a81548173ffffffffffffffffffffffffffffffffffffffff021916908373ffffffffffffffffffffffffffffffffffffffff160217905550806000808473ffffffffffffffffffffffffffffffffffffffff1673ffffffffffffffffffffffffffffffffffffffff16815260200190815260200160002084815481106107e157fe5b9060005260206000209060020201600082015481600001556001820160009054906101000a900473ffffffffffffffffffffffffffffffffffffffff168160010160006101000a81548173ffffffffffffffffffffffffffffffffffffffff021916908373ffffffffffffffffffffffffffffffffffffffff1602179055509050506000803373ffffffffffffffffffffffffffffffffffffffff1673ffffffffffffffffffffffffffffffffffffffff16815260200190815260200160002083815481106108ac57fe5b90600052602060002090600202016000808201600090556001820160006101000a81549073ffffffffffffffffffffffffffffffffffffffff02191690555050505050565b60025481111561094c576040517f08c379a0000000000000000000000000000000000000000000000000000000008152600401808060200182810382526022815260200180610bc56022913960400191505060405180910390fd5b600073ffffffffffffffffffffffffffffffffffffffff166001600083815260200190815260200160002060010160009054906101000a900473ffffffffffffffffffffffffffffffffffffffff1673ffffffffffffffffffffffffffffffffffffffff1614610a07576040517f08c379a0000000000000000000000000000000000000000000000000000000008152600401808060200182810382526038815260200180610b8d6038913960400191505060405180910390fd5b60036000815480929190600101919050555060405180604001604052808281526020013373ffffffffffffffffffffffffffffffffffffffff16815250600160008381526020019081526020016000206000820151816000015560208201518160010160006101000a81548173ffffffffffffffffffffffffffffffffffffffff021916908373ffffffffffffffffffffffffffffffffffffffff160217905550905050600160008281526020019081526020016000206000803373ffffffffffffffffffffffffffffffffffffffff1673ffffffffffffffffffffffffffffffffffffffff1681526020019081526020016000208281548110610b0757fe5b9060005260206000209060020201600082015481600001556001820160009054906101000a900473ffffffffffffffffffffffffffffffffffffffff168160010160006101000a81548173ffffffffffffffffffffffffffffffffffffffff021916908373ffffffffffffffffffffffffffffffffffffffff1602179055509050505056fe63616e6e6f7420726567697374657220616e20726567697374726174696f6e207468617420686173206265656e2072656769737465726564657863656564206d6178206e756d626572206f6620726567697374726174696f6e736f6e6c792074686520707265736964656e7420686173207065726d697373696f6e20746f20696e63726561736520746f74616c20636f756e74596f752063616e6e2774206f70657261746520616e2072656769737465726174696f6e207468617420796f7520646f6e2774206f776ea165627a7a72305820b52cf65bdb8cdd3fc51f64d88b7f60c67b1aa68d8445454ccb95f13f4acd3e320029",
  "source": "pragma solidity ^0.5.0;\n\ncontract GuaCoin {\n    struct Registration {\n        uint id;\n        address owner;\n    }\n\n    mapping(address => Registration[]) public registrations;\n    mapping(uint => Registration) public registrationMappings;\n    uint public totalCount;\n    uint public usedCount;\n    address public president;\n\n    // Constructor\n    constructor() public {\n        totalCount = 10;\n        usedCount = 0;\n        president = msg.sender;\n    }\n\n    function add(uint num) public {\n        require(msg.sender == president, \"only the president has permission to increase total count\");\n        totalCount += num;\n    }\n\n    function transfer (uint numOfRegistration, address to) public {\n        require(own(numOfRegistration), \"You cann't operate an registeration that you don't own\");\n\n        Registration storage registration = registrations[msg.sender][numOfRegistration];\n        registration.owner = to;\n        registrations[to][numOfRegistration] = registration;\n        delete registrations[msg.sender][numOfRegistration];\n    }\n\n    function register (uint numOfRegistration) public payable {\n        require(numOfRegistration <= totalCount, \"exceed max number of registrations\");\n        require(registrationMappings[numOfRegistration].owner == address(0), \"cannot register an registration that has been registered\");\n\n        usedCount++;\n        registrationMappings[numOfRegistration] = Registration(numOfRegistration, msg.sender);\n        registrations[msg.sender][numOfRegistration] = registrationMappings[numOfRegistration];\n    }\n\n    function own(uint numOfRegistration) public view returns (bool) {\n        for (uint i = 0; i<registrations[msg.sender].length; i++) {\n            if (registrations[msg.sender][i].id == numOfRegistration) {\n                return true;\n            }\n        }\n        return false;\n    }\n\n    function inspectOwner(uint numOfRegistration) public view returns (address) {\n        return registrationMappings[numOfRegistration].owner;\n    }\n\n}\n",
  "sourcePath": "/Users/haofuxin/practices/ethereum/project1/truffle/GuaCoin/contracts/GuaCoin.sol",
  "compiler": {
    "name": "solc",
    "version": "0.5.8+commit.23d335f2.Emscripten.clang"
  },
  "schemaVersion": "3.0.11",
  "updatedAt": "2019-08-23T11:01:57.855Z",
  "devdoc": {
    "methods": {}
  },
  "userdoc": {
    "methods": {}
  }
}